:0D1499000D0A74656D703A25642E256400FF
:0C14A600024D0000045100000000C10BCA
:10147800439850438920758DFD758BFDD28EC2AC83
:011488002241
:0814D1008F993099FDC29922A8
:1013A3008B088A09890AAB08AA09A90A120CFF60EB
:1013B30013050AE50A7002050914F9120CFFFF125E
:0513C30014D180E222BC
:0914BE00007F027E54DEFEDFFC1B
:0114C7002202
:0414E0007F20DFFE8C
:0114E40022E5
:0414E5007F01DFFEA6
:0114E90022E0
:101437007DFFD290C2901214BED290309006AF05B5
:071447001DEF70F70214BE57
:02141E00AE0717
:101420007D08C2901214E5EE1392901214E0D2904F
:06143000EEC313FEDDEC2B
:011436002293
:101404007D08D290C290EEC313FED2903090034375
:0914140006801214E0DDEBAF06C6
:01141D0022AC
:101310001214377FCC12141E7F4412141E1214377D
:101320007FCC12141E7FBE12141E1214048F5A1288
:1013300014048F5BE55A540FF55CE55AC4540FF55D
:0B1340005AE55BC454F0F55B455AFF12
:01134B00227F
:0914C800D2A1D2A0C2A1C2A0224F
:0714D900C2A1D2A0D2A122A2
:0314650012144E10
:0F1468007FFFD2A030A106AE071FEE70F7C2A023
:011477002252
:0514EA00D2A1D2A022F6
:1013E900D2A1E4FED2A0EF25E0FF30A1034307011B
:0A13F900C2A00EBE08EED2A1C2A0F1
:0114030022C6
:10144E00E4FEEF3392A1EF25E0FFD2A0C2A00EBEC4
:06145E0008F0D2A1C2A0BB
:011464002265
:0213C800AD076F
:1013CA001214C87F90121465AF051214651214C85E
:0E13DA007F9112144E1214681213E91214D9E6
:0113E80022E2
:03000B0002129648
:10129600C0E0C0F0C083C082C0D075D000C000C01E
:1012A60001C002C003C004C005C006C007758CF7A4
:1012B600758A5C0559E559C394C8403375590005CC
:1012C60022E522B4081F121310754F008F50AC5C34
:1012D600E4120910E4FBFA79C878401208001209F2
:1012E600448E4B8F4CE522C3940A4003752200D0EE
:1012F60007D006D005D004D003D002D001D000D04C
:0A130600D0D082D083D0F0D0E032C6
:10148900758901758CF7758A5CD28CD2A9D2AF2285
:0B14B300EF1FAC0670011E4C70F6220B
:10134C001214891214781214EA121437D299D29901
:10135C007BFF7A147999854F62855063854B648540
:10136C004C65120DFDC2997FD07E071214B380DE3E
:10080000EC4D6011E8497017ED33EC3304600DE4F2
:10081000FCFFFEFD22E933E8330470F80209B01250
:10082000097B58046009E4CC248150062850090251
:1008300009BA2840030209B7C0E0EB4A7044B98006
:1008400006D0E0FB0209A6EF4E701CBD8008EBFF4E
:10085000EAFEE9FD80EBE98DF0A4FEE5F00208E98F
:10086000E9CDF9EAFEEBFFEF89F0A4FCE5F0CE89D3
:10087000F0A42EFFE435F0CD89F0A42DFEE435F090
:100880008067EF4E7005BD80D780C3EF8BF0A4ACBE
:10089000F0EE8BF0A42CFCE435F0F8EF8AF0A42CF9
:1008A000E5F038FCE433CB8DF0A42CFCE5F03BF80C
:1008B000EE8AF0A42CFCE5F038F8E433CF89F0A4FC
:1008C0002CFCE5F038CF3400CE89F0A42FFFE5F002
:1008D0003EFEE433C98DF0A42EFEE5F039CD8AF05A
:1008E000A42FFFE5F03EFEE43DFD33D0E0FB5007D2
:1008F0000BBB000F0209BAEC2CFCEF33FFEE33FE0A
:06090000ED33FD02099237
:1009060075F020800E75F010800575F0087D007E6C
:10091600007F003392D530D503120D57EC334010CB
:10092600EF33FFEE33FEED33FDEC33FCD5F0ED2275
:0E093600E5F0247EA2D513CC92E7CDCEFF22B1
:10094400EDD2E7CD33EC3392D524814006E4FFFEAB
:10095400FDFC22FCE4CFCECDCC24E0501174FF800A
:10096400EDC3CC13CCCD13CDCE13CECF13CF0470A7
:07097400F030D5DE020D5743
:100D9B00E5762462F8E6057622785F300702786202
:100DAB00E475F001120D65020CFF2000EB7F2ED2D3
:100DBB00008018EF540F2490D43440D4FF30040B30
:100DCB00EF24BFB41A0050032461FFE577600215CE
:100DDB0077057AE57A7002057930070D785FE4754F
:100DEB00F001120D65EF020D4502137C7403D2075F
:100DFB008003E4C207F5768B5F8A608961E4F5773F
:100E0B00F579F57AE57760077F20120DD680F575B9
:100E1B0078FFC201C200C202C203C205C206C208E9
:100E2B00120DA4FF700D3007057F00120DE7AF7A8E
:100E3B00AE7922B4255FC2D5C204120DA4FF24D013
:100E4B00B40A00501A75F00A787730D50508B6FF4A
:100E5B000106C6A426F620D5047002D20380D9243D
:100E6B00CFB41A00EF5004C2E5D2040210D4D20161
:100E7B0080C6D20080C0D20280BCD2D580BAD20547
:100E8B0080B47F20120DD62002077401B577004085
:100E9B00F1120D9BFF120DD6020E0FD208D2068057
:100EAB0095120D9BFB120D9BFA120D9BF94A4B7081
:100EBB000679CB7A117BFF20022EE577602A7E0024
:100ECB008E82758300120D1860060EEE657870F039
:100EDB00C2D5EBC0E0EAC0E0E9C0E0EE121134D0BD
:100EEB00E0F9D0E0FAD0E0FB120CFFFF60AAEBC0F8
:100EFB00E0EAC0E0E9C0E0120DD6D0E02401F9D061
:100F0B00E03400FAD0E0FBE5780460DCD578D980DA
:100F1B0087D20280A212111760F7E57870010412D4
:100F2B0009C5A978600DE578600914F5781211BE32
:100F3B00EF60F3EA30E702F404C3995077EAF42543
:100F4B00780430E701E404F578800D12111760C1C5
:100F5B00EA057825781209C5EA7875F630E701E4D9
:100F6B00257804D5780420050114121134E4C0E06F
:100F7B001211BE7875E6601320E70714F6120DBE4A
:100F8B00802204F6D0E014C0E07F00120DBEE5789D
:100F9B006007120DB51578800B300503120DB5D017
:100FAB00E0020E0FD0E00480C512111760A0E578A7
:100FBB00041209C57875EAF6E5782005026001048C
:050FCB002404121134A2
:100FD00074FF04C0E01211BE120DBEE578200502B8
:100FE0006003120DB5D0E0B578E87F45120DC878E2
:100FF00075E67F2B30E7047F2DF404C0E0120DD698
:10100000D0E075F00A84C0F0120DBFD0E0120DBF21
:10101000020E0F791080027908C206C2088008D239
:10102000D5790A8004790AC2D5E578047002F5788A
:10103000E4FAFDFEFF120D9BFC7B08200113120D4C
:101040009BFD7B1030000A120D9BFE120D9BFF7B57
:1010500020EC3382D592D55013C3E43000069FFFB5
:10106000E49EFEE42001039DFDE49CFCE4CBF8C279
:1010700001EC700CCFCECDCCE824F8F870F38017DB
:10108000C3EF33FFEE33FEED33FDEC33FCEB33FB0C
:10109000994002FB0FD8E9EB300105F8D0E0C448D5
:1010A000B201C0E00AEC4D4E4F78207B0070C2EADE
:1010B000B5780040BCC0E0121136D0F0D0E020017D
:1010C00004C4C0E0C4B201C0F0120DBFD0F0D5F02E
:1010D000EB020E0F120D750EAC531013580E7D4C13
:1010E0000E794210174F101F44101F490E924310E3
:1010F00025550F56460FB4450F204711EB500E8172
:101100002D0E852E0EA82B0E89230EA62011D42A73
:101110000E414800000EA0E578B4FF037578061272
:101120000D9BFC120D9BFD120D9BFE120D9BFF787B
:101130006E0209F4790AA2D5200314300509B9100A
:10114000020404B9080104A2D520060250010420BB
:1011500002689202B577005034C0E07F2030031956
:101160007F30A20272067205500F12118DC202C2A8
:1011700006C205C2087F30800F300503E9C0E012C7
:101180000DD6300503D0E0F9D0E0B577CC300517A7
:101190007F30B9100C120DD67F583004077F78804D
:1011A00003B90803120DD63002057F2D020DD67F3C
:1011B000202008F87F2B2006F322920280CF7F00A8
:1011C000B407005005246EF8E6FF22286E756C6C9B
:1011D0002900D201120D9B3001F8C201787730D579
:1011E0000108F6020E412D50434958120D9B24036D
:1011F000B405004001E49011E693120DC7743A1251
:0A1200000DC7D20375770402101326
:10097B00E9D2E7C933E833F892D5EDD2E7CD33ECC2
:07098B0033FC5002B2D5223B
:10099200EC30E7100FBF000C0EBE00080DBD0004C6
:1009A2000BEB6014A2D5EB13FCED92E7FD2274FF72
:1009B200FCFDFEFF22E480F8A2D574FF13FC7D80CB
:0309C200E480EFDF
:1009C500F920E72824F950037907E4F42402FB18F9
:1009D500DBFDE624FB5014E9600DE4F618E604F6A9
:0F09E500B40A08E4F6D9F57401F60A22C2D52245
:1009F400ED33EC3392D5FA602AB4FF33EDC2E77BD2
:100A0400FF60067A0A7919E4227A0A792220D50449
:100A14007A0A791D224E614E002B494E46002D491B
:100A24004E4600E47A08F608DAFC7B00740722E8F4
:100A3400C0E0ECC0E0EDC0E0EEC0E0EFC0E0EA757D
:100A4400F010A4CAABF075F04DA42BFBE435F0FC18
:100A5400EA2410FAEB34C5FBEC34D9FCEDC2E7FF11
:100A640075F056A4F42411C5F0F434C58FF0A42A0B
:100A7400E5F03BE43CF620E714120CBFD0E0FFD0D5
:100A8400E0FED0E0FDD0E0FC120BF28014F404127E
:100A94000CBFD0E0FFD0E0FED0E0FDD0E0FC1208B7
:100AA40000D0E0F8E6FAEDD2E7CD33EC332482FB54
:100AB400E4C3CF33CFCE33CECD33CD33DBF37B079B
:100AC40075F00A846004F6081B0AE5F0F6088FF056
:100AD400740AA4FFACF08EF0740AA42CFEACF0509F
:100AE400010C8DF0740AA42CFDE435F0F608DBDE6D
:030AF40074072262
:100AF7000209B0E86480F8E933E83360110460F074
:100B0700ED33EC337009E8FCE9FDEAFEEBFF220464
:100B170060DED3EB9FEA9EE99DE8C2E78CF0C2F75F
:100B270095F0400CE8CCF8E9CDF9EACEFAEBCFFB2B
:100B370012097B85D0F05804700320D5B3E8047000
:100B4700075002B2D50209BA92D5EC0460F7E4CC9B
:100B5700C0E0C398F8603B94186008400DD0E0FBF4
:100B6700020992E4FBFAC9FC8028E830E406E4C9EC
:100B7700FBE4CAFCE830E305E4C9CACBFCE8540748
:100B87006010F8C3E913F9EA13FAEB13FBEC13FC53
:100B9700D8F130F52FC3E49CFCEF9BFFEE9AFEEDF6
:100BA70099FDD0E0FBEF4E4D4C701222DB0302099A
:100BB700B7EC2CFCEF33FFEE33FEED33FDED30E702
:100BC700EB020992EF2BFFEE3AFEED39FDD0E0FB89
:100BD70050130BBB00030209BAED13FDEE13FEEF32
:080BE70013FFEC13FC0209925C
:100BEF000209BAEC5D046005E8590470030209B00C
:100BFF0012097B580460F6EC4860F2EC7004FDFEBD
:100C0F00FF22C860DB2481C85009C39860025006D8
:100C1F000209B79850CAF582E9294B4A7005AB8291
:100C2F000209A675F0007C1A7880C3EF9BEE9AED4F
:100C3F0099400DC3EF9BFFEE9AFEED99FDE842F050
:100C4F00DC23ACF0D0E0FFD0E0FED0E0FDAB8220A3
:100C5F00E7101BEB60BAEC2CFCEF33FFEE33FEED2D
:100C6F0033FD020992E803F830E705C0F075F00094
:100C7F00EF2FFFEE33FEED33FD40B830E7C280AA11
:100C8F003F8000004120000042C80000447A00006D
:100C9F00461C400047C35000497424004B189680EF
:100CAF004CBEBC205A0E1BCA6753C21C749DC5AEE6
:100CBF00FB60065407601C2323120CEDEB543860C5
:100CCF0009120CD9120CE8120800ECF8EDF9EEFA43
:100CDF00EFCB22EB120CE880F1543803241C900C5C
:100CEF008FFE93FC0EEE93FD0EEE930ECE93FF222E
:0300000002120ADF
:0C120A00787FE4F6D8FD75817A0212515D
:100CFF00BB010689828A83E0225002E722BBFE02F3
:090D0F00E32289828A83E4932225
:100D1800BB010CE58229F582E5833AF583E0225090
:100D280006E92582F8E622BBFE06E92582F8E222DA
:0D0D3800E58229F582E5833AF583E49322F4
:100D4500BB010689828A83F0225002F722BBFE018D
:020D5500F32287
:0E0D5700C3E49FFFE49EFEE49DFDE49CFC22AD
:100D6500FAE6FB0808E6F925F0F618E6CA3AF6228F
:100D7500D083D082F8E4937012740193700DA3A30D
:100D850093F8740193F5828883E473740293686021
:060D9500EFA3A3A380DF21
:10137C00EFB40A07740D121387740A309811A899E8
:10138C00B8130CC2983098FDA899C298B811F630D1
:07139C0099FDC299F59922A9
:1012160002134CE493A3F8E493A34003F68001F28F
:1012260008DFF48029E493A3F85407240CC8C333D9
:10123600C4540F4420C8834004F456800146F6DFA8
:10124600E4800B01020408102040809014A6E47E7E
:10125600019360BCA3FF543F30E509541FFEE4939D
:10126600A360010ECF54C025E060A840B8E493A364
:10127600FAE493A3F8E493A3C8C582C8CAC583CA8F
:10128600F0A3C8C582C8CAC583CADFE9DEE780BE47
:0114B2000039
:00000001FF
